:020000040800F2
:1000000050080020F50B0008110C0008150C000822
:10001000190C00081D0C0008210C0008000000004D
:10002000000000000000000000000000250C000897
:10003000290C0008000000002D0C00083103000806
:10004000350C0008390C00083D0C0008410C000874
:10005000450C0008490C00084D0C0008510C000824
:10006000550C0008590C00085D0C0008610C0008D4
:10007000650C0008690C00086D0C0008710C000884
:10008000750C0008790C00087D0C0008810C000834
:10009000850C0008890C00088D0C0008910C0008E4
:1000A000950C0008990C00089D0C0008A10C000894
:1000B000A50C0008A90C0008AD0C00087902000886
:1000C000B50C0008B90C0008BD0C0008C10C0008F4
:1000D00035060008C90C0008CD0C0008D10C00083A
:1000E000D50C0008D90C0008DD0C000810B5614CD7
:1000F000237843F004032370012221464E2000F0B0
:1001000003F9C82000F03AF9207800F0FB002070D5
:10011000012221464E2000F0F7F889E010B500F0EA
:1001200037F8544C207800F0FC0040F008002070B4
:10013000012221464E2000F0E7F8207800F00F0061
:1001400040F020002070FFF7D1FFC82000F016F922
:10015000282000F03EF8C82000F010F90C2000F034
:1001600038F8C82000F00AF9062000F032F8C8205C
:1001700000F004F9142000F02CF8C82000F0FEF87C
:10018000012000F026F8BDE81040022000F0EFB892
:1001900010B50F2000F0EBF8364C207800F00C0082
:1001A00040F030002070FFF7A1FF052000F0DFF8DD
:1001B000207800F00F0040F030002070FFF796FF2D
:1001C000642000F0DBF8207800F00F0040F03000F1
:1001D0002BE038B5274D2978044601F00E0104F0D4
:1001E000F00001432970FFF781FF297801F00F012A
:1001F00041EA0411297013E038B51E4D29780446F0
:1002000001F00F0104F0F000014341F001012970F9
:10021000FFF76CFF287800F00F0040EA0410287008
:10022000BDE8314062E70120D3E72070FFF75EFFB1
:10023000BDE81040C82000F0A1B838B50C46012C2C
:10024000054608DB15F8010BFFF7D6FFC82000F0C4
:1002500095F8641EF6D131BD10B5044606E014F8D9
:10026000010BFFF7C9FFC82000F088F820780028AC
:10027000F5D110BD4800002010B42B492B4A888AC4
:10028000C30702D5888A13780B82888A830709D529
:10029000888A0B8B506810F8014B0C825060936871
:1002A0005B1E9360888A03060ED5906828B98B88F8
:1002B0004FF6FF3003408B8006E0536813F8014B84
:1002C0000C82401E53609060888A43070CD590686A
:1002D00050B98B884FF6FF5003408B8001200C886B
:1002E00044F400740C80507010BC70470E482421F8
:1002F00081805521828B42F0B4028283018402887E
:1003000042F0010202807047084B18709A605960F1
:10031000002058700448818841F4C06181800288BF
:1003200042F48072028070470054004000000020B8
:1003300022480168491C01607047214821494160F9
:10034000002282600721016070471C4BD3F800C077
:100350000268ACEB020C614503D219680160012010
:1003600070470020704715490A68026070471649B7
:1003700000220A800A8248F69F4C05E012490022BA
:100380000A800A824FF0230C4000A1F828C0401ECA
:100390008885012088824FF6FE700A8A02400A8210
:1003A0000B8843F001030B80088AC207FCD54FF687
:1003B000FE700B8803400B80704700004400002053
:1003C00010E000E03F19010000080040F8B588B0D7
:1003D00000F0B6F800F0DDF8FFF7AFFF00F050F9DD
:1003E000FFF784FF00F0CEF8FFF798FE00F092F9D7
:1003F00002A8FFF7B8FF01A8FFF7B5FF6846FFF7AF
:10040000B2FF00BF49A1434F91E87C000DF10C0001
:1004100080E87C0040F23F140FF204153EA601E094
:1004200000F0B8F9642102A8FFF78FFF18B1381D5A
:1004300000F076F9387001216846FFF786FF10B1A9
:1004400003A800F0CDF94FF47A7101A8FFF77DFF02
:10045000D8B1FFF7E8FE0220FFF789FF38780128BE
:1004600003D13046FFF7F8FE0FE0B7F90420294624
:1004700007F1080000F0EEF907F1080000F00AFAB1
:10048000014607F10800FFF7D8FE03A800F0D4F9F1
:10049000012804D1B878401E8041C00FB870B7F968
:1004A0000400B4280CDA0021B97000F06FF900F0F4
:1004B00031F9B7F90400A0420ADD0020787008E0A5
:1004C000B8780128F1D100F05DF900F01FF9F0E7EC
:1004D00002DBB878012801D1012179703878012830
:1004E00010D10021797000F04BF900F06FF9B7F9E5
:1004F0000400B0F5967F02DB3978012990D100F035
:1005000055F98FE778780128EDD100F037F900F040
:1005100059F9ECE7180000204552524F52000000F4
:100520002020543A202569430000000000080140C3
:1005300000000000000000001400000000000000A7
:100540003748016841F004010160026842F0080286
:100550000260016841F010010160026842F400622B
:100560000260416841F001014160416841F00401CD
:100570004160416841F480414160416841F40011AB
:100580004160704727484FF00041016010224260EF
:10059000704738B5244C02220C21204600F095F912
:1005A0000A220D21204600F090F904220E21204657
:1005B00000F08BF90E220621204600F086F90E226B
:1005C0000721204600F081F9184D02220421284617
:1005D00000F07BF902220321284600F076F902227E
:1005E0000221284600F071F902220121284600F07C
:1005F0006CF902220B21204600F067F902220A2141
:10060000204600F062F904220021284600F05DF93E
:10061000BDE8384002220D21054800F056B900001F
:100620001810024000E100E0000C01400008014009
:100630000010014030498888820710D52F4A906801
:1006400040B113689B1C1360401E9B1E1B880B81CE
:10065000906004E00A884FF67F7002400A808A8822
:10066000D0070CD5254AD06840B1098953689B1C36
:100670005360401E23F8021DD06070470889704700
:1006800018B41F4938220A8040F604300B8803430F
:100690000B8004248C800A8842F040020A808888FB
:1006A00040F0400088800C2114BC22E010B5134CAF
:1006B000491E2060A1600C21124800F025F9216834
:1006C0000D48891C216031F8022D0281038843F016
:1006D0008003038010BD094A5060D160704700005C
:1006E00000BF094800880006C00F80F00100704775
:1006F0000C21044800F006B9043800403400002002
:1007000000380040000C0140083800400D2103482B
:1007100000F0FAB80D21014800F0F4B800100140D3
:1007200038B504462B4D02212846FFF7BFFF0221B2
:100730002846FFF7D0FFFFF7D3FF0028FBD0FFF7D5
:10074000D7FF2888698801EB0041081400F00100F8
:10075000091502000CD1686800EBC00008180A22D5
:1007600090FBF2F26A6000220020AA60218032BD74
:10077000AA68521C0A2AF7DB0A22F6E70B2102E0DC
:100780000B2104E00A21144800F0BCB80A211248E9
:1007900000F0BAB810B5114C0121204600F0B2F8B3
:1007A0002046BDE81040022100F0AEB810B50B4C59
:1007B0000121204600F0A8F82046BDE810400221A3
:1007C00000F0A0B80421054800F09CB804210348BB
:1007D00000F09AB80C000020000C01400008014015
:1007E00038B505462C7C6968286800F086F8002832
:1007F000A868E9680CBF401C401EA8600846AA68AB
:100800009042C8BF1046A860002844BF0022AA60DA
:10081000A868884204BF0121297400B92874287C83
:1008200020B11CB901206874297C31BD287C10B925
:100830000CB10120A87431BD417C012903D10022F3
:10084000427401207047002070470268531C036007
:10085000117070470CB430B583B00A4606A90291F6
:10086000044600250194009502AB01A9084878448C
:100870001E3000F05BF8019A157000284EBF044648
:100880000198041B204603B030BC5DF80CFB00BF90
:10089000BBFFFFFF00F10103810704D010F8011B2B
:1008A000820781B1FAD10268A2F10131914311F0BE
:1008B000803104BF50F8042FF6E709BAB1FA81F18C
:1008C00000EBD100401CC01A70470F2308290ADB37
:1008D00008398900D0F804C08B402CEA03038A4011
:1008E0001A43426070478900D0F800C08B402CEA60
:1008F00003038A401A43026070478068C84000F0D2
:1009000001007047012201E00122103102FA01F1D9
:100910000161704770B505461C000846164604D0B4
:1009200016F8011BA847641EFAD170BD2DE9FC43DF
:1009300083B08146884617461D4607E001233A46A4
:1009400041464846FFF7E6FF80467F1C3878E0B115
:100950002528F3D17978BF1C252912D058295AD0DF
:10096000632915D0642918BF692918D06F2952D07E
:10097000702956D073295BD0752918BF78294AD0C1
:10098000E4E74046C8478046E0E705B0BDE8F083AD
:100990002868286050F8041B2860C9B2F1E728686D
:1009A000286050F8046B2860002E03D52D214046A6
:1009B000C847804664216F2908BF082205D041F04E
:1009C0002000782814BF0A2210220B246429304604
:1009D00002D1002E48BF4042B0FBF2FC02FB1C00DB
:1009E0003030641EC3B23A2BA4BFA1F151063018B7
:1009F0000DF804005FEA0C0001D0002CECDC0DEBDC
:100A00000406D4F10B044046BDD016F8011BC847BC
:100A1000641EFAD1B7E72868286050F8046B286094
:100A2000C9E728682860782150F8046B2860C2E77D
:100A30002868286050F8046B28603046FFF72AFFCA
:100A4000040040469FD016F8011BC847641EFAD127
:100A500099E70000374A384982B0106840F0010039
:100A60001060536835480B4053600023D2F800C033
:100A700000EA0C0CC2F800C0116821F4802111605A
:100A80004FF41F01506820F4FE0050609160009305
:100A90000193136843F480331360106800F400304E
:100AA00001900098401C0090019818B90098B0F58A
:100AB000A06FF2D11068400C00F001000190019885
:100AC000012830D11E48016841F01001016003681F
:100AD0009B089B000360016841F0020101605068BF
:100AE000506051685160506840F4806050605068B8
:100AF00020F47C105060506840F4E8105060116899
:100B000041F08071116010688101FCD55068800847
:100B100080005060506840F002005060506800F063
:100B20000C000828FAD14FF000600649086002B0B6
:100B300070470000001002400000FFF8FFFFF6FEC3
:100B40000020024008ED00E030B5016884684218DA
:100B5000416802EB5103C9070BD54C4409E012F977
:100B6000011B12F8015B002904F8015B05D5491C43
:100B7000F9D19A42F3D10C3030BD491EF1D5F8E7D6
:100B800010B5074979441831064C7C44163404E00A
:100B90000A68081D114488470146A142F8D110BDDA
:100BA0000800000014000000A1FFFFFF3401000056
:100BB0000A000000000000200120C046002801D0EB
:100BC000FFF7DEFFAFF300800020AFF30080FFF7F8
:100BD000FDFB00F000F800F001B8000007463846C1
:100BE00000F002F8FBE7000020210903263118205D
:100BF000ABBEF9E70148804701480047550A0008A5
:100C0000050C0008AFF30080AFF30080FFF7D4FFBE
:100C1000FFF7FEBFFFF7FEBFFFF7FEBFFFF7FEBF08
:100C2000FFF7FEBFFFF7FEBFFFF7FEBFFFF7FEBFF8
:100C3000FFF77EBBFFF7FEBFFFF7FEBFFFF7FEBF6C
:100C4000FFF7FEBFFFF7FEBFFFF7FEBFFFF7FEBFD8
:100C5000FFF7FEBFFFF7FEBFFFF7FEBFFFF7FEBFC8
:100C6000FFF7FEBFFFF7FEBFFFF7FEBFFFF7FEBFB8
:100C7000FFF7FEBFFFF7FEBFFFF7FEBFFFF7FEBFA8
:100C8000FFF7FEBFFFF7FEBFFFF7FEBFFFF7FEBF98
:100C9000FFF7FEBFFFF7FEBFFFF7FEBFFFF7FEBF88
:100CA000FFF7FEBFFFF7FEBFFFF7FEBFFFF7FEBF78
:100CB000FFF7E2BAFFF7FEBFFFF7FEBFFFF7FEBF89
:100CC000FFF7FEBFFFF7B6BCFFF7FEBFFFF7FEBFA3
:100CD000FFF7FEBFFFF7FEBFFFF7FEBFFFF7FEBF48
:050CE000010001B90054
:0400000508000C05DE
:00000001FF
